{
  "_format": "hh-sol-artifact-1",
  "contractName": "Auction",
  "sourceName": "contracts/Auction.sol",
  "abi": [
    {
      "inputs": [],
      "stateMutability": "nonpayable",
      "type": "constructor"
    },
    {
      "anonymous": false,
      "inputs": [
        {
          "indexed": false,
          "internalType": "address",
          "name": "highestBidder",
          "type": "address"
        },
        {
          "indexed": false,
          "internalType": "uint256",
          "name": "highestBid",
          "type": "uint256"
        },
        {
          "indexed": false,
          "internalType": "uint256",
          "name": "auctionId",
          "type": "uint256"
        }
      ],
      "name": "AuctionEnded",
      "type": "event"
    },
    {
      "anonymous": false,
      "inputs": [
        {
          "indexed": false,
          "internalType": "uint256",
          "name": "startTime",
          "type": "uint256"
        },
        {
          "indexed": false,
          "internalType": "uint256",
          "name": "endTime",
          "type": "uint256"
        },
        {
          "indexed": false,
          "internalType": "string",
          "name": "lotName",
          "type": "string"
        }
      ],
      "name": "AuctionStarted",
      "type": "event"
    },
    {
      "anonymous": false,
      "inputs": [
        {
          "indexed": false,
          "internalType": "uint256",
          "name": "auctiodId",
          "type": "uint256"
        }
      ],
      "name": "EmptyAuction",
      "type": "event"
    },
    {
      "anonymous": false,
      "inputs": [
        {
          "indexed": false,
          "internalType": "address",
          "name": "bidder",
          "type": "address"
        },
        {
          "indexed": false,
          "internalType": "uint256",
          "name": "bid",
          "type": "uint256"
        },
        {
          "indexed": false,
          "internalType": "uint256",
          "name": "auctionId",
          "type": "uint256"
        }
      ],
      "name": "LogBid",
      "type": "event"
    },
    {
      "inputs": [
        {
          "internalType": "uint256",
          "name": "lotId",
          "type": "uint256"
        }
      ],
      "name": "closeAuction",
      "outputs": [],
      "stateMutability": "nonpayable",
      "type": "function"
    },
    {
      "inputs": [],
      "name": "getAllLots",
      "outputs": [
        {
          "components": [
            {
              "internalType": "uint256",
              "name": "id",
              "type": "uint256"
            },
            {
              "internalType": "string",
              "name": "name",
              "type": "string"
            },
            {
              "internalType": "string",
              "name": "description",
              "type": "string"
            },
            {
              "internalType": "string",
              "name": "imageURL",
              "type": "string"
            },
            {
              "internalType": "uint256",
              "name": "minimalBidIncrement",
              "type": "uint256"
            },
            {
              "internalType": "uint256",
              "name": "auctionEndTime",
              "type": "uint256"
            },
            {
              "internalType": "address",
              "name": "owner",
              "type": "address"
            },
            {
              "internalType": "bool",
              "name": "closed",
              "type": "bool"
            },
            {
              "internalType": "uint256",
              "name": "highestBid",
              "type": "uint256"
            },
            {
              "internalType": "address",
              "name": "highestBidder",
              "type": "address"
            }
          ],
          "internalType": "struct Auction.Lot[]",
          "name": "",
          "type": "tuple[]"
        }
      ],
      "stateMutability": "view",
      "type": "function"
    },
    {
      "inputs": [
        {
          "internalType": "uint256",
          "name": "",
          "type": "uint256"
        }
      ],
      "name": "lots",
      "outputs": [
        {
          "internalType": "uint256",
          "name": "id",
          "type": "uint256"
        },
        {
          "internalType": "string",
          "name": "name",
          "type": "string"
        },
        {
          "internalType": "string",
          "name": "description",
          "type": "string"
        },
        {
          "internalType": "string",
          "name": "imageURL",
          "type": "string"
        },
        {
          "internalType": "uint256",
          "name": "minimalBidIncrement",
          "type": "uint256"
        },
        {
          "internalType": "uint256",
          "name": "auctionEndTime",
          "type": "uint256"
        },
        {
          "internalType": "address",
          "name": "owner",
          "type": "address"
        },
        {
          "internalType": "bool",
          "name": "closed",
          "type": "bool"
        },
        {
          "internalType": "uint256",
          "name": "highestBid",
          "type": "uint256"
        },
        {
          "internalType": "address",
          "name": "highestBidder",
          "type": "address"
        }
      ],
      "stateMutability": "view",
      "type": "function"
    },
    {
      "inputs": [
        {
          "internalType": "uint256",
          "name": "lotId",
          "type": "uint256"
        }
      ],
      "name": "placeBid",
      "outputs": [],
      "stateMutability": "payable",
      "type": "function"
    },
    {
      "inputs": [
        {
          "internalType": "string",
          "name": "_name",
          "type": "string"
        },
        {
          "internalType": "string",
          "name": "_description",
          "type": "string"
        },
        {
          "internalType": "string",
          "name": "_imageURL",
          "type": "string"
        },
        {
          "internalType": "uint256",
          "name": "_minimalBidIncrement",
          "type": "uint256"
        },
        {
          "internalType": "uint256",
          "name": "_auctionEndTime",
          "type": "uint256"
        }
      ],
      "name": "startNewAuction",
      "outputs": [],
      "stateMutability": "nonpayable",
      "type": "function"
    }
  ],
  "bytecode": "0x608060405234801561001057600080fd5b5060006001819055506121c1806100286000396000f3fe60806040526004361061004a5760003560e01c80631f3a1c3d1461004f578063236ed8f3146100785780638e3bea6f146100a15780639979ef45146100cc578063f1648e84146100e8575b600080fd5b34801561005b57600080fd5b5061007660048036038101906100719190611680565b61012e565b005b34801561008457600080fd5b5061009f600480360381019061009a919061173f565b610399565b005b3480156100ad57600080fd5b506100b6610984565b6040516100c39190611af4565b60405180910390f35b6100e660048036038101906100e1919061173f565b610c89565b005b3480156100f457600080fd5b5061010f600480360381019061010a919061173f565b6112f9565b6040516101259a99989796959493929190611c31565b60405180910390f35b80804210610171576040517f08c379a000000000000000000000000000000000000000000000000000000000815260040161016890611b96565b60405180910390fd5b600061017b611542565b905060006040518061014001604052808381526020018981526020018881526020018781526020018681526020018581526020013373ffffffffffffffffffffffffffffffffffffffff168152602001600015158152602001600081526020013373ffffffffffffffffffffffffffffffffffffffff1681525090506000819080600181540180825580915050600190039060005260206000209060090201600090919091909150600082015181600001556020820151816001019080519060200190610249929190611560565b506040820151816002019080519060200190610266929190611560565b506060820151816003019080519060200190610283929190611560565b506080820151816004015560a0820151816005015560c08201518160060160006101000a81548173ffffffffffffffffffffffffffffffffffffffff021916908373ffffffffffffffffffffffffffffffffffffffff16021790555060e08201518160060160146101000a81548160ff02191690831515021790555061010082015181600701556101208201518160080160006101000a81548173ffffffffffffffffffffffffffffffffffffffff021916908373ffffffffffffffffffffffffffffffffffffffff16021790555050507f6629ad87443640d3f7c53724eff1bf0dd5350f7a733e58cfded9519910cf2db542858a60405161038793929190611ce2565b60405180910390a15050505050505050565b8060015481106103de576040517f08c379a00000000000000000000000000000000000000000000000000000000081526004016103d590611bb6565b60405180910390fd5b600015156000828154811061041c577f4e487b7100000000000000000000000000000000000000000000000000000000600052603260045260246000fd5b906000526020600020906009020160060160149054906101000a900460ff1615151461047d576040517f08c379a000000000000000000000000000000000000000000000000000000000815260040161047490611b56565b60405180910390fd5b60008083815481106104b8577f4e487b7100000000000000000000000000000000000000000000000000000000600052603260045260246000fd5b906000526020600020906009020160405180610140016040529081600082015481526020016001820180546104ec90611ebc565b80601f016020809104026020016040519081016040528092919081815260200182805461051890611ebc565b80156105655780601f1061053a57610100808354040283529160200191610565565b820191906000526020600020905b81548152906001019060200180831161054857829003601f168201915b5050505050815260200160028201805461057e90611ebc565b80601f01602080910402602001604051908101604052809291908181526020018280546105aa90611ebc565b80156105f75780601f106105cc576101008083540402835291602001916105f7565b820191906000526020600020905b8154815290600101906020018083116105da57829003601f168201915b5050505050815260200160038201805461061090611ebc565b80601f016020809104026020016040519081016040528092919081815260200182805461063c90611ebc565b80156106895780601f1061065e57610100808354040283529160200191610689565b820191906000526020600020905b81548152906001019060200180831161066c57829003601f168201915b5050505050815260200160048201548152602001600582015481526020016006820160009054906101000a900473ffffffffffffffffffffffffffffffffffffffff1673ffffffffffffffffffffffffffffffffffffffff1673ffffffffffffffffffffffffffffffffffffffff1681526020016006820160149054906101000a900460ff16151515158152602001600782015481526020016008820160009054906101000a900473ffffffffffffffffffffffffffffffffffffffff1673ffffffffffffffffffffffffffffffffffffffff1673ffffffffffffffffffffffffffffffffffffffff168152505090503373ffffffffffffffffffffffffffffffffffffffff168160c0015173ffffffffffffffffffffffffffffffffffffffff16146107eb576040517f08c379a00000000000000000000000000000000000000000000000000000000081526004016107e290611bf6565b60405180910390fd5b428160a001511115610832576040517f08c379a000000000000000000000000000000000000000000000000000000000815260040161082990611b16565b60405180910390fd5b60016000848154811061086e577f4e487b7100000000000000000000000000000000000000000000000000000000600052603260045260246000fd5b906000526020600020906009020160060160146101000a81548160ff021916908315150217905550600081610100015114156108e5577fb7e1b2e9fae1c2ede1f58acaefaffa3e3af3b22e083dfc58b71d2f3bf742194081600001516040516108d79190611c16565b60405180910390a150610980565b8060c0015173ffffffffffffffffffffffffffffffffffffffff166108fc8261010001519081150290604051600060405180830381858888f19350505050158015610934573d6000803e3d6000fd5b507fc358e8e3f205b5e7453abd5cbac388ca4552b887b69001bc972b88610c749035816101200151826101000151836000015160405161097693929190611abd565b60405180910390a1505b5050565b60606000805480602002602001604051908101604052809291908181526020016000905b82821015610c80578382906000526020600020906009020160405180610140016040529081600082015481526020016001820180546109e690611ebc565b80601f0160208091040260200160405190810160405280929190818152602001828054610a1290611ebc565b8015610a5f5780601f10610a3457610100808354040283529160200191610a5f565b820191906000526020600020905b815481529060010190602001808311610a4257829003601f168201915b50505050508152602001600282018054610a7890611ebc565b80601f0160208091040260200160405190810160405280929190818152602001828054610aa490611ebc565b8015610af15780601f10610ac657610100808354040283529160200191610af1565b820191906000526020600020905b815481529060010190602001808311610ad457829003601f168201915b50505050508152602001600382018054610b0a90611ebc565b80601f0160208091040260200160405190810160405280929190818152602001828054610b3690611ebc565b8015610b835780601f10610b5857610100808354040283529160200191610b83565b820191906000526020600020905b815481529060010190602001808311610b6657829003601f168201915b5050505050815260200160048201548152602001600582015481526020016006820160009054906101000a900473ffffffffffffffffffffffffffffffffffffffff1673ffffffffffffffffffffffffffffffffffffffff1673ffffffffffffffffffffffffffffffffffffffff1681526020016006820160149054906101000a900460ff16151515158152602001600782015481526020016008820160009054906101000a900473ffffffffffffffffffffffffffffffffffffffff1673ffffffffffffffffffffffffffffffffffffffff1673ffffffffffffffffffffffffffffffffffffffff1681525050815260200190600101906109a8565b50505050905090565b806001548110610cce576040517f08c379a0000000000000000000000000000000000000000000000000000000008152600401610cc590611bb6565b60405180910390fd5b6000151560008281548110610d0c577f4e487b7100000000000000000000000000000000000000000000000000000000600052603260045260246000fd5b906000526020600020906009020160060160149054906101000a900460ff16151514610d6d576040517f08c379a0000000000000000000000000000000000000000000000000000000008152600401610d6490611b56565b60405180910390fd5b6000808381548110610da8577f4e487b7100000000000000000000000000000000000000000000000000000000600052603260045260246000fd5b90600052602060002090600902016040518061014001604052908160008201548152602001600182018054610ddc90611ebc565b80601f0160208091040260200160405190810160405280929190818152602001828054610e0890611ebc565b8015610e555780601f10610e2a57610100808354040283529160200191610e55565b820191906000526020600020905b815481529060010190602001808311610e3857829003601f168201915b50505050508152602001600282018054610e6e90611ebc565b80601f0160208091040260200160405190810160405280929190818152602001828054610e9a90611ebc565b8015610ee75780601f10610ebc57610100808354040283529160200191610ee7565b820191906000526020600020905b815481529060010190602001808311610eca57829003601f168201915b50505050508152602001600382018054610f0090611ebc565b80601f0160208091040260200160405190810160405280929190818152602001828054610f2c90611ebc565b8015610f795780601f10610f4e57610100808354040283529160200191610f79565b820191906000526020600020905b815481529060010190602001808311610f5c57829003601f168201915b5050505050815260200160048201548152602001600582015481526020016006820160009054906101000a900473ffffffffffffffffffffffffffffffffffffffff1673ffffffffffffffffffffffffffffffffffffffff1673ffffffffffffffffffffffffffffffffffffffff1681526020016006820160149054906101000a900460ff16151515158152602001600782015481526020016008820160009054906101000a900473ffffffffffffffffffffffffffffffffffffffff1673ffffffffffffffffffffffffffffffffffffffff1673ffffffffffffffffffffffffffffffffffffffff16815250509050428160a00151116110af576040517f08c379a00000000000000000000000000000000000000000000000000000000081526004016110a690611b76565b60405180910390fd5b3373ffffffffffffffffffffffffffffffffffffffff168160c0015173ffffffffffffffffffffffffffffffffffffffff161415611122576040517f08c379a000000000000000000000000000000000000000000000000000000000815260040161111990611b36565b60405180910390fd5b6000349050816080015182610100015161113c9190611ddc565b811161117d576040517f08c379a000000000000000000000000000000000000000000000000000000000815260040161117490611bd6565b60405180910390fd5b600082610120015190506000836101000151905082600087815481106111cc577f4e487b7100000000000000000000000000000000000000000000000000000000600052603260045260246000fd5b906000526020600020906009020160070181905550336000878154811061121c577f4e487b7100000000000000000000000000000000000000000000000000000000600052603260045260246000fd5b906000526020600020906009020160080160006101000a81548173ffffffffffffffffffffffffffffffffffffffff021916908373ffffffffffffffffffffffffffffffffffffffff1602179055508173ffffffffffffffffffffffffffffffffffffffff166108fc829081150290604051600060405180830381858888f193505050501580156112b1573d6000803e3d6000fd5b507fbbabaf3e746c7221adc5f3e705ce28693e1f45cb1884a1c6f408c9e51c35f73d338486600001516040516112e993929190611abd565b60405180910390a1505050505050565b6000818154811061130957600080fd5b906000526020600020906009020160009150905080600001549080600101805461133290611ebc565b80601f016020809104026020016040519081016040528092919081815260200182805461135e90611ebc565b80156113ab5780601f10611380576101008083540402835291602001916113ab565b820191906000526020600020905b81548152906001019060200180831161138e57829003601f168201915b5050505050908060020180546113c090611ebc565b80601f01602080910402602001604051908101604052809291908181526020018280546113ec90611ebc565b80156114395780601f1061140e57610100808354040283529160200191611439565b820191906000526020600020905b81548152906001019060200180831161141c57829003601f168201915b50505050509080600301805461144e90611ebc565b80601f016020809104026020016040519081016040528092919081815260200182805461147a90611ebc565b80156114c75780601f1061149c576101008083540402835291602001916114c7565b820191906000526020600020905b8154815290600101906020018083116114aa57829003601f168201915b5050505050908060040154908060050154908060060160009054906101000a900473ffffffffffffffffffffffffffffffffffffffff16908060060160149054906101000a900460ff16908060070154908060080160009054906101000a900473ffffffffffffffffffffffffffffffffffffffff1690508a565b60006001600081548092919061155790611f1f565b91905055905090565b82805461156c90611ebc565b90600052602060002090601f01602090048101928261158e57600085556115d5565b82601f106115a757805160ff19168380011785556115d5565b828001600101855582156115d5579182015b828111156115d45782518255916020019190600101906115b9565b5b5090506115e291906115e6565b5090565b5b808211156115ff5760008160009055506001016115e7565b5090565b600061161661161184611d45565b611d20565b90508281526020810184848401111561162e57600080fd5b611639848285611e7a565b509392505050565b600082601f83011261165257600080fd5b8135611662848260208601611603565b91505092915050565b60008135905061167a81612174565b92915050565b600080600080600060a0868803121561169857600080fd5b600086013567ffffffffffffffff8111156116b257600080fd5b6116be88828901611641565b955050602086013567ffffffffffffffff8111156116db57600080fd5b6116e788828901611641565b945050604086013567ffffffffffffffff81111561170457600080fd5b61171088828901611641565b93505060606117218882890161166b565b92505060806117328882890161166b565b9150509295509295909350565b60006020828403121561175157600080fd5b600061175f8482850161166b565b91505092915050565b600061177483836119b7565b905092915050565b61178581611e32565b82525050565b61179481611e32565b82525050565b60006117a582611d86565b6117af8185611da9565b9350836020820285016117c185611d76565b8060005b858110156117fd57848403895281516117de8582611768565b94506117e983611d9c565b925060208a019950506001810190506117c5565b50829750879550505050505092915050565b61181881611e44565b82525050565b61182781611e44565b82525050565b600061183882611d91565b6118428185611dba565b9350611852818560208601611e89565b61185b81611ff5565b840191505092915050565b600061187182611d91565b61187b8185611dcb565b935061188b818560208601611e89565b61189481611ff5565b840191505092915050565b60006118ac602c83611dcb565b91506118b782612006565b604082019050919050565b60006118cf602083611dcb565b91506118da82612055565b602082019050919050565b60006118f2602083611dcb565b91506118fd8261207e565b602082019050919050565b6000611915601983611dcb565b9150611920826120a7565b602082019050919050565b6000611938600e83611dcb565b9150611943826120d0565b602082019050919050565b600061195b601683611dcb565b9150611966826120f9565b602082019050919050565b600061197e601683611dcb565b915061198982612122565b602082019050919050565b60006119a1601c83611dcb565b91506119ac8261214b565b602082019050919050565b6000610140830160008301516119d06000860182611a9f565b50602083015184820360208601526119e8828261182d565b91505060408301518482036040860152611a02828261182d565b91505060608301518482036060860152611a1c828261182d565b9150506080830151611a316080860182611a9f565b5060a0830151611a4460a0860182611a9f565b5060c0830151611a5760c086018261177c565b5060e0830151611a6a60e086018261180f565b50610100830151611a7f610100860182611a9f565b50610120830151611a9461012086018261177c565b508091505092915050565b611aa881611e70565b82525050565b611ab781611e70565b82525050565b6000606082019050611ad2600083018661178b565b611adf6020830185611aae565b611aec6040830184611aae565b949350505050565b60006020820190508181036000830152611b0e818461179a565b905092915050565b60006020820190508181036000830152611b2f8161189f565b9050919050565b60006020820190508181036000830152611b4f816118c2565b9050919050565b60006020820190508181036000830152611b6f816118e5565b9050919050565b60006020820190508181036000830152611b8f81611908565b9050919050565b60006020820190508181036000830152611baf8161192b565b9050919050565b60006020820190508181036000830152611bcf8161194e565b9050919050565b60006020820190508181036000830152611bef81611971565b9050919050565b60006020820190508181036000830152611c0f81611994565b9050919050565b6000602082019050611c2b6000830184611aae565b92915050565b600061014082019050611c47600083018d611aae565b8181036020830152611c59818c611866565b90508181036040830152611c6d818b611866565b90508181036060830152611c81818a611866565b9050611c906080830189611aae565b611c9d60a0830188611aae565b611caa60c083018761178b565b611cb760e083018661181e565b611cc5610100830185611aae565b611cd361012083018461178b565b9b9a5050505050505050505050565b6000606082019050611cf76000830186611aae565b611d046020830185611aae565b8181036040830152611d168184611866565b9050949350505050565b6000611d2a611d3b565b9050611d368282611eee565b919050565b6000604051905090565b600067ffffffffffffffff821115611d6057611d5f611fc6565b5b611d6982611ff5565b9050602081019050919050565b6000819050602082019050919050565b600081519050919050565b600081519050919050565b6000602082019050919050565b600082825260208201905092915050565b600082825260208201905092915050565b600082825260208201905092915050565b6000611de782611e70565b9150611df283611e70565b9250827fffffffffffffffffffffffffffffffffffffffffffffffffffffffffffffffff03821115611e2757611e26611f68565b5b828201905092915050565b6000611e3d82611e50565b9050919050565b60008115159050919050565b600073ffffffffffffffffffffffffffffffffffffffff82169050919050565b6000819050919050565b82818337600083830152505050565b60005b83811015611ea7578082015181840152602081019050611e8c565b83811115611eb6576000848401525b50505050565b60006002820490506001821680611ed457607f821691505b60208210811415611ee857611ee7611f97565b5b50919050565b611ef782611ff5565b810181811067ffffffffffffffff82111715611f1657611f15611fc6565b5b80604052505050565b6000611f2a82611e70565b91507fffffffffffffffffffffffffffffffffffffffffffffffffffffffffffffffff821415611f5d57611f5c611f68565b5b600182019050919050565b7f4e487b7100000000000000000000000000000000000000000000000000000000600052601160045260246000fd5b7f4e487b7100000000000000000000000000000000000000000000000000000000600052602260045260246000fd5b7f4e487b7100000000000000000000000000000000000000000000000000000000600052604160045260246000fd5b6000601f19601f8301169050919050565b7f596f752063616e6e6f7420636c6f73652061756374696f6e206265666f72652060008201527f74726164696e6720656e64730000000000000000000000000000000000000000602082015250565b7f4f776e65722063616e6e6f742062696420686973206f776e2061756374696f6e600082015250565b7f54686973206c6f742068617320616c7265616479206265656e20636c6f736564600082015250565b7f41756374696f6e2068617320616c726561647920656e64656400000000000000600082015250565b7f496e636f72726563742074696d65000000000000000000000000000000000000600082015250565b7f54686973206c6f7420646f65736e277420657869737400000000000000000000600082015250565b7f426964206973206e6f74206869676820656e6f75676800000000000000000000600082015250565b7f4f6e6c79206f776e65722063616e20636c6f73652061756374696f6e00000000600082015250565b61217d81611e70565b811461218857600080fd5b5056fea264697066735822122073c7828eb6275d8477bab91ebb41857973f26cf5192645b1be77a338da1fefab64736f6c63430008040033",
  "linkReferences": {},
  "deployedLinkReferences": {}
}